{
  "contractName": "DVideo",
  "abi": [
    {
      "inputs": [],
      "payable": false,
      "stateMutability": "nonpayable",
      "type": "constructor"
    },
    {
      "anonymous": false,
      "inputs": [
        {
          "indexed": false,
          "internalType": "uint256",
          "name": "id",
          "type": "uint256"
        },
        {
          "indexed": false,
          "internalType": "string",
          "name": "hash",
          "type": "string"
        },
        {
          "indexed": false,
          "internalType": "string",
          "name": "title",
          "type": "string"
        },
        {
          "indexed": false,
          "internalType": "address",
          "name": "author",
          "type": "address"
        }
      ],
      "name": "VideoUploaded",
      "type": "event"
    },
    {
      "constant": true,
      "inputs": [],
      "name": "commentCount",
      "outputs": [
        {
          "internalType": "uint256",
          "name": "",
          "type": "uint256"
        }
      ],
      "payable": false,
      "stateMutability": "view",
      "type": "function"
    },
    {
      "constant": true,
      "inputs": [
        {
          "internalType": "uint256",
          "name": "",
          "type": "uint256"
        }
      ],
      "name": "comments",
      "outputs": [
        {
          "internalType": "uint256",
          "name": "id",
          "type": "uint256"
        },
        {
          "internalType": "string",
          "name": "hasVideo",
          "type": "string"
        },
        {
          "internalType": "address",
          "name": "author",
          "type": "address"
        },
        {
          "internalType": "string",
          "name": "comment",
          "type": "string"
        }
      ],
      "payable": false,
      "stateMutability": "view",
      "type": "function"
    },
    {
      "constant": true,
      "inputs": [
        {
          "internalType": "uint256",
          "name": "",
          "type": "uint256"
        }
      ],
      "name": "emptyTab",
      "outputs": [
        {
          "internalType": "uint256",
          "name": "id",
          "type": "uint256"
        },
        {
          "internalType": "string",
          "name": "hasVideo",
          "type": "string"
        },
        {
          "internalType": "address",
          "name": "author",
          "type": "address"
        },
        {
          "internalType": "string",
          "name": "comment",
          "type": "string"
        }
      ],
      "payable": false,
      "stateMutability": "view",
      "type": "function"
    },
    {
      "constant": true,
      "inputs": [],
      "name": "name",
      "outputs": [
        {
          "internalType": "string",
          "name": "",
          "type": "string"
        }
      ],
      "payable": false,
      "stateMutability": "view",
      "type": "function"
    },
    {
      "constant": true,
      "inputs": [
        {
          "internalType": "string",
          "name": "",
          "type": "string"
        }
      ],
      "name": "videoByHash",
      "outputs": [
        {
          "internalType": "uint256",
          "name": "id",
          "type": "uint256"
        },
        {
          "internalType": "string",
          "name": "hash",
          "type": "string"
        },
        {
          "internalType": "string",
          "name": "title",
          "type": "string"
        },
        {
          "internalType": "address",
          "name": "author",
          "type": "address"
        },
        {
          "internalType": "uint256",
          "name": "commentCount",
          "type": "uint256"
        }
      ],
      "payable": false,
      "stateMutability": "view",
      "type": "function"
    },
    {
      "constant": true,
      "inputs": [
        {
          "internalType": "string",
          "name": "",
          "type": "string"
        },
        {
          "internalType": "uint256",
          "name": "",
          "type": "uint256"
        }
      ],
      "name": "videoComments",
      "outputs": [
        {
          "internalType": "string",
          "name": "",
          "type": "string"
        }
      ],
      "payable": false,
      "stateMutability": "view",
      "type": "function"
    },
    {
      "constant": true,
      "inputs": [],
      "name": "videoCount",
      "outputs": [
        {
          "internalType": "uint256",
          "name": "",
          "type": "uint256"
        }
      ],
      "payable": false,
      "stateMutability": "view",
      "type": "function"
    },
    {
      "constant": true,
      "inputs": [
        {
          "internalType": "uint256",
          "name": "",
          "type": "uint256"
        }
      ],
      "name": "videos",
      "outputs": [
        {
          "internalType": "uint256",
          "name": "id",
          "type": "uint256"
        },
        {
          "internalType": "string",
          "name": "hash",
          "type": "string"
        },
        {
          "internalType": "string",
          "name": "title",
          "type": "string"
        },
        {
          "internalType": "address",
          "name": "author",
          "type": "address"
        },
        {
          "internalType": "uint256",
          "name": "commentCount",
          "type": "uint256"
        }
      ],
      "payable": false,
      "stateMutability": "view",
      "type": "function"
    },
    {
      "constant": true,
      "inputs": [],
      "name": "zero",
      "outputs": [
        {
          "internalType": "uint256",
          "name": "",
          "type": "uint256"
        }
      ],
      "payable": false,
      "stateMutability": "view",
      "type": "function"
    },
    {
      "constant": false,
      "inputs": [
        {
          "internalType": "string",
          "name": "_videoHash",
          "type": "string"
        },
        {
          "internalType": "string",
          "name": "_title",
          "type": "string"
        }
      ],
      "name": "uploadVideo",
      "outputs": [],
      "payable": false,
      "stateMutability": "nonpayable",
      "type": "function"
    },
    {
      "constant": false,
      "inputs": [
        {
          "internalType": "string",
          "name": "_videoHash",
          "type": "string"
        },
        {
          "internalType": "string",
          "name": "_comment",
          "type": "string"
        }
      ],
      "name": "addComment",
      "outputs": [],
      "payable": false,
      "stateMutability": "nonpayable",
      "type": "function"
    }
  ],
  "bytecode": "0x608060405260008055600060015560006002556040518060400160405280600681526020017f44566964656f0000000000000000000000000000000000000000000000000000815250600390805190602001906200005f92919062000074565b503480156200006d57600080fd5b5062000123565b828054600181600116156101000203166002900490600052602060002090601f016020900481019282601f10620000b757805160ff1916838001178555620000e8565b82800160010185558215620000e8579182015b82811115620000e7578251825591602001919060010190620000ca565b5b509050620000f79190620000fb565b5090565b6200012091905b808211156200011c57600081600090555060010162000102565b5090565b90565b611ba580620001336000396000f3fe608060405234801561001057600080fd5b50600436106100a95760003560e01c80638ebb4c15116100715780638ebb4c151461052c578063ae5ff90514610679578063bc1b392d146107cb578063c61b5f4c146107e9578063e4cf7b2914610807578063e6821bf5146109e8576100a9565b806301284106146100ae57806306fdde03146101ec57806331f90f961461026f57806345ff20de146103bc5780638a5447c5146103da575b600080fd5b610171600480360360408110156100c457600080fd5b81019080803590602001906401000000008111156100e157600080fd5b8201836020820111156100f357600080fd5b8035906020019184600183028401116401000000008311171561011557600080fd5b91908080601f016020809104026020016040519081016040528093929190818152602001838380828437600081840152601f19601f82011690508083019250505050505050919291929080359060200190929190505050610b3c565b6040518080602001828103825283818151815260200191508051906020019080838360005b838110156101b1578082015181840152602081019050610196565b50505050905090810190601f1680156101de5780820380516001836020036101000a031916815260200191505b509250505060405180910390f35b6101f4610c0f565b6040518080602001828103825283818151815260200191508051906020019080838360005b83811015610234578082015181840152602081019050610219565b50505050905090810190601f1680156102615780820380516001836020036101000a031916815260200191505b509250505060405180910390f35b61029b6004803603602081101561028557600080fd5b8101908080359060200190929190505050610cad565b60405180858152602001806020018473ffffffffffffffffffffffffffffffffffffffff1673ffffffffffffffffffffffffffffffffffffffff16815260200180602001838103835286818151815260200191508051906020019080838360005b838110156103175780820151818401526020810190506102fc565b50505050905090810190601f1680156103445780820380516001836020036101000a031916815260200191505b50838103825284818151815260200191508051906020019080838360005b8381101561037d578082015181840152602081019050610362565b50505050905090810190601f1680156103aa5780820380516001836020036101000a031916815260200191505b50965050505050505060405180910390f35b6103c4610e3a565b6040518082815260200191505060405180910390f35b61052a600480360360408110156103f057600080fd5b810190808035906020019064010000000081111561040d57600080fd5b82018360208201111561041f57600080fd5b8035906020019184600183028401116401000000008311171561044157600080fd5b91908080601f016020809104026020016040519081016040528093929190818152602001838380828437600081840152601f19601f820116905080830192505050505050509192919290803590602001906401000000008111156104a457600080fd5b8201836020820111156104b657600080fd5b803590602001918460018302840111640100000000831117156104d857600080fd5b91908080601f016020809104026020016040519081016040528093929190818152602001838380828437600081840152601f19601f820116905080830192505050505050509192919290505050610e40565b005b6105586004803603602081101561054257600080fd5b8101908080359060200190929190505050611221565b60405180858152602001806020018473ffffffffffffffffffffffffffffffffffffffff1673ffffffffffffffffffffffffffffffffffffffff16815260200180602001838103835286818151815260200191508051906020019080838360005b838110156105d45780820151818401526020810190506105b9565b50505050905090810190601f1680156106015780820380516001836020036101000a031916815260200191505b50838103825284818151815260200191508051906020019080838360005b8381101561063a57808201518184015260208101905061061f565b50505050905090810190601f1680156106675780820380516001836020036101000a031916815260200191505b50965050505050505060405180910390f35b6107c96004803603604081101561068f57600080fd5b81019080803590602001906401000000008111156106ac57600080fd5b8201836020820111156106be57600080fd5b803590602001918460018302840111640100000000831117156106e057600080fd5b91908080601f016020809104026020016040519081016040528093929190818152602001838380828437600081840152601f19601f8201169050808301925050505050505091929192908035906020019064010000000081111561074357600080fd5b82018360208201111561075557600080fd5b8035906020019184600183028401116401000000008311171561077757600080fd5b91908080601f016020809104026020016040519081016040528093929190818152602001838380828437600081840152601f19601f8201169050808301925050505050505091929192905050506113a1565b005b6107d361171d565b6040518082815260200191505060405180910390f35b6107f1611723565b6040518082815260200191505060405180910390f35b6108c06004803603602081101561081d57600080fd5b810190808035906020019064010000000081111561083a57600080fd5b82018360208201111561084c57600080fd5b8035906020019184600183028401116401000000008311171561086e57600080fd5b91908080601f016020809104026020016040519081016040528093929190818152602001838380828437600081840152601f19601f820116905080830192505050505050509192919290505050611729565b6040518086815260200180602001806020018573ffffffffffffffffffffffffffffffffffffffff1673ffffffffffffffffffffffffffffffffffffffff168152602001848152602001838103835287818151815260200191508051906020019080838360005b83811015610942578082015181840152602081019050610927565b50505050905090810190601f16801561096f5780820380516001836020036101000a031916815260200191505b50838103825286818151815260200191508051906020019080838360005b838110156109a857808201518184015260208101905061098d565b50505050905090810190601f1680156109d55780820380516001836020036101000a031916815260200191505b5097505050505050505060405180910390f35b610a14600480360360208110156109fe57600080fd5b81019080803590602001909291905050506118c5565b6040518086815260200180602001806020018573ffffffffffffffffffffffffffffffffffffffff1673ffffffffffffffffffffffffffffffffffffffff168152602001848152602001838103835287818151815260200191508051906020019080838360005b83811015610a96578082015181840152602081019050610a7b565b50505050905090810190601f168015610ac35780820380516001836020036101000a031916815260200191505b50838103825286818151815260200191508051906020019080838360005b83811015610afc578082015181840152602081019050610ae1565b50505050905090810190601f168015610b295780820380516001836020036101000a031916815260200191505b5097505050505050505060405180910390f35b600882805160208101820180518482526020830160208501208183528095505050505050602052806000526040600020600091509150508054600181600116156101000203166002900480601f016020809104026020016040519081016040528092919081815260200182805460018160011615610100020316600290048015610c075780601f10610bdc57610100808354040283529160200191610c07565b820191906000526020600020905b815481529060010190602001808311610bea57829003601f168201915b505050505081565b60038054600181600116156101000203166002900480601f016020809104026020016040519081016040528092919081815260200182805460018160011615610100020316600290048015610ca55780601f10610c7a57610100808354040283529160200191610ca5565b820191906000526020600020905b815481529060010190602001808311610c8857829003601f168201915b505050505081565b60048181548110610cba57fe5b9060005260206000209060040201600091509050806000015490806001018054600181600116156101000203166002900480601f016020809104026020016040519081016040528092919081815260200182805460018160011615610100020316600290048015610d6c5780601f10610d4157610100808354040283529160200191610d6c565b820191906000526020600020905b815481529060010190602001808311610d4f57829003601f168201915b5050505050908060020160009054906101000a900473ffffffffffffffffffffffffffffffffffffffff1690806003018054600181600116156101000203166002900480601f016020809104026020016040519081016040528092919081815260200182805460018160011615610100020316600290048015610e305780601f10610e0557610100808354040283529160200191610e30565b820191906000526020600020905b815481529060010190602001808311610e1357829003601f168201915b5050505050905084565b60015481565b6000825111610e4e57600080fd5b6000815111610e5c57600080fd5b600073ffffffffffffffffffffffffffffffffffffffff163373ffffffffffffffffffffffffffffffffffffffff161415610e9657600080fd5b60008081548092919060010191905055506040518060a0016040528060005481526020018381526020018281526020013373ffffffffffffffffffffffffffffffffffffffff1681526020016002548152506005600080548152602001908152602001600020600082015181600001556020820151816001019080519060200190610f22929190611a4b565b506040820151816002019080519060200190610f3f929190611a4b565b5060608201518160030160006101000a81548173ffffffffffffffffffffffffffffffffffffffff021916908373ffffffffffffffffffffffffffffffffffffffff160217905550608082015181600401559050506040518060a0016040528060005481526020018381526020018281526020013373ffffffffffffffffffffffffffffffffffffffff1681526020016002548152506007836040518082805190602001908083835b6020831061100b5780518252602082019150602081019050602083039250610fe8565b6001836020036101000a0380198251168184511680821785525050505050509050019150509081526020016040518091039020600082015181600001556020820151816001019080519060200190611064929190611a4b565b506040820151816002019080519060200190611081929190611a4b565b5060608201518160030160006101000a81548173ffffffffffffffffffffffffffffffffffffffff021916908373ffffffffffffffffffffffffffffffffffffffff160217905550608082015181600401559050507f2c44b862f4b4e08a26a765f9499900759a9ec95360a6f174d53163bd5d367f676000548383336040518085815260200180602001806020018473ffffffffffffffffffffffffffffffffffffffff1673ffffffffffffffffffffffffffffffffffffffff168152602001838103835286818151815260200191508051906020019080838360005b8381101561117957808201518184015260208101905061115e565b50505050905090810190601f1680156111a65780820380516001836020036101000a031916815260200191505b50838103825285818151815260200191508051906020019080838360005b838110156111df5780820151818401526020810190506111c4565b50505050905090810190601f16801561120c5780820380516001836020036101000a031916815260200191505b50965050505050505060405180910390a15050565b6006602052806000526040600020600091509050806000015490806001018054600181600116156101000203166002900480601f0160208091040260200160405190810160405280929190818152602001828054600181600116156101000203166002900480156112d35780601f106112a8576101008083540402835291602001916112d3565b820191906000526020600020905b8154815290600101906020018083116112b657829003601f168201915b5050505050908060020160009054906101000a900473ffffffffffffffffffffffffffffffffffffffff1690806003018054600181600116156101000203166002900480601f0160208091040260200160405190810160405280929190818152602001828054600181600116156101000203166002900480156113975780601f1061136c57610100808354040283529160200191611397565b820191906000526020600020905b81548152906001019060200180831161137a57829003601f168201915b5050505050905084565b6001600081548092919060010191905055506007826040518082805190602001908083835b602083106113e957805182526020820191506020810190506020830392506113c6565b6001836020036101000a038019825116818451168082178552505050505050905001915050908152602001604051809103902060040160008154809291906001019190505550604051806080016040528060015481526020018381526020013373ffffffffffffffffffffffffffffffffffffffff168152602001828152506006600060015481526020019081526020016000206000820151816000015560208201518160010190805190602001906114a3929190611a4b565b5060408201518160020160006101000a81548173ffffffffffffffffffffffffffffffffffffffff021916908373ffffffffffffffffffffffffffffffffffffffff1602179055506060820151816003019080519060200190611507929190611a4b565b50905050806008836040518082805190602001908083835b60208310611542578051825260208201915060208101905060208303925061151f565b6001836020036101000a038019825116818451168082178552505050505050905001915050908152602001604051809103902060006007856040518082805190602001908083835b602083106115ad578051825260208201915060208101905060208303925061158a565b6001836020036101000a03801982511681845116808217855250505050505090500191505090815260200160405180910390206004015481526020019081526020016000209080519060200190611605929190611acb565b507f2c44b862f4b4e08a26a765f9499900759a9ec95360a6f174d53163bd5d367f6760005483336040518084815260200180602001806020018473ffffffffffffffffffffffffffffffffffffffff1673ffffffffffffffffffffffffffffffffffffffff168152602001838103835285818151815260200191508051906020019080838360005b838110156116a857808201518184015260208101905061168d565b50505050905090810190601f1680156116d55780820380516001836020036101000a031916815260200191505b50838103825260058152602001807f68656c6c6f0000000000000000000000000000000000000000000000000000008152506020019550505050505060405180910390a15050565b60025481565b60005481565b600781805160208101820180518482526020830160208501208183528095505050505050600091509050806000015490806001018054600181600116156101000203166002900480601f0160208091040260200160405190810160405280929190818152602001828054600181600116156101000203166002900480156117f15780601f106117c6576101008083540402835291602001916117f1565b820191906000526020600020905b8154815290600101906020018083116117d457829003601f168201915b505050505090806002018054600181600116156101000203166002900480601f01602080910402602001604051908101604052809291908181526020018280546001816001161561010002031660029004801561188f5780601f106118645761010080835404028352916020019161188f565b820191906000526020600020905b81548152906001019060200180831161187257829003601f168201915b5050505050908060030160009054906101000a900473ffffffffffffffffffffffffffffffffffffffff16908060040154905085565b6005602052806000526040600020600091509050806000015490806001018054600181600116156101000203166002900480601f0160208091040260200160405190810160405280929190818152602001828054600181600116156101000203166002900480156119775780601f1061194c57610100808354040283529160200191611977565b820191906000526020600020905b81548152906001019060200180831161195a57829003601f168201915b505050505090806002018054600181600116156101000203166002900480601f016020809104026020016040519081016040528092919081815260200182805460018160011615610100020316600290048015611a155780601f106119ea57610100808354040283529160200191611a15565b820191906000526020600020905b8154815290600101906020018083116119f857829003601f168201915b5050505050908060030160009054906101000a900473ffffffffffffffffffffffffffffffffffffffff16908060040154905085565b828054600181600116156101000203166002900490600052602060002090601f016020900481019282601f10611a8c57805160ff1916838001178555611aba565b82800160010185558215611aba579182015b82811115611ab9578251825591602001919060010190611a9e565b5b509050611ac79190611b4b565b5090565b828054600181600116156101000203166002900490600052602060002090601f016020900481019282601f10611b0c57805160ff1916838001178555611b3a565b82800160010185558215611b3a579182015b82811115611b39578251825591602001919060010190611b1e565b5b509050611b479190611b4b565b5090565b611b6d91905b80821115611b69576000816000905550600101611b51565b5090565b9056fea265627a7a72315820f23b8c2c16261bbea6cd218c53ec86556f75869709797cea9f11ba143d478c3a64736f6c63430005100032",
  "source": "pragma solidity >=0.4.22 <0.9.0;\n\ncontract DVideo {\n  uint public videoCount = 0;\n  uint public commentCount = 0;\n  uint public zero = 0;\n  string public name = \"DVideo\";\n  Comment[] public emptyTab;\n\n  mapping(uint => Video) public videos;\n  mapping(uint => Comment) public comments;\n  mapping (string => Video) public videoByHash;\n  mapping(string => mapping(uint => string)) public videoComments;\n\n  struct Video {\n    uint id;\n    string hash;\n    string title;\n    address author;\n    uint commentCount; \n  }\n\n  struct Comment {\n    uint id;\n    string hasVideo;\n    address author; \n    string comment;\n  }\n\n  event VideoUploaded(\n    uint id,\n    string hash,\n    string title,\n    address author\n  );\n\n\n\n  constructor() public {\n  }\n\n  function uploadVideo(string memory _videoHash, string memory _title) public {\n    // Make sure the video hash exists\n    require(bytes(_videoHash).length > 0);\n    // Make sure video title exists\n    require(bytes(_title).length > 0);\n    // Make sure uploader address exists\n    require(msg.sender!=address(0));\n\n    // Increment video id\n    videoCount ++;\n\n    // Add video to the contract\n    videos[videoCount] = Video(videoCount, _videoHash, _title, msg.sender, zero);\n    videoByHash[_videoHash] = Video(videoCount, _videoHash, _title, msg.sender, zero);\n    // Trigger an event\n    emit VideoUploaded(videoCount, _videoHash, _title, msg.sender);\n  }\n\n  function addComment(string memory _videoHash, string memory _comment) public {\n      commentCount++;\n      videoByHash[_videoHash].commentCount++;\n      comments[commentCount] = Comment(commentCount, _videoHash, msg.sender, _comment);\n     // videoByHash[_videoHash].idComments.push(comments[commentCount]);\n      \n      videoComments[_videoHash][videoByHash[_videoHash].commentCount] = _comment;\n\n      emit VideoUploaded(videoCount, _videoHash, \"hello\", msg.sender);\n  }\n}\n\n\n\n\n\n\n\n\n\n\n\n\n\n\n\n\n/*\ncontract DVideo {\n\n uint public VideoCommentCount = 0;\n  uint public CommentCount = 0;\n  uint public videoCount = 0;\n  string public name = \"DVideo\";\n   uint[] public emptyTab = [0];\n  //Create id=>struct mapping\n  mapping (uint => Video) public videos;\n\n  mapping (uint => Comment) public comments;\n  mapping(uint )\n\n  // mapping (string => mapping (uint => Comment)) public videoComments;\n\n  //Create Struct\nstruct Video{\n  uint id;\n  string hash;\n  string title;\n  address author;\n  uint[] idComments; \n\n}\n\nstruct Comment {\n  uint id;\n  string comment;\n  string hashVideo;\n  uint idVideo;\n  address author;\n}\n\nevent VideoUploaded(\n  uint id,\n  string hash,\n  string title,\n  address author\n);\n\nevent NewComment (\n  uint id,\n  string comment,\n  string hashVideo,\n  uint idVideo,\n  address author\n  \n);\n  //Create Event\n\n\n  \n\n  function uploadVideo(string memory _videoHash, string memory _title) public {\n    // Make sure the video hash exists\n    require(bytes(_videoHash).length > 0 );\n    // Make sure video title exists\n    require(bytes(_title).length > 0 );\n    // Make sure uploader address exists\n    require(msg.sender != address(0));\n\n    // Increment video id\n      videoCount++;\n    // Add video to the contract\n   \n      videos[videoCount] = Video(videoCount, _videoHash, _title, msg.sender, emptyTab );\n\n    // Trigger an event\nemit VideoUploaded(videoCount, _videoHash, _title, msg.sender);\n\n\n  }\n\n\n  function uploadComment(string memory _videoHash, string memory _comment, uint _idVideo) public {\n\n    CommentCount++;\n    comments[CommentCount] = Comment(CommentCount, _videoHash, _comment, _idVideo, msg.sender);\n    emit NewComment(CommentCount, _videoHash, _comment,_idVideo, msg.sender);\n\n    videos[_idVideo].idComments.push(CommentCount);\n\n  }\n\n/*\n    function addVideoComment(string memory _hashVideo, string memory _comment) public {\n       \n       // VideoCommentCount = videoComments.length;\n    \n   //if(videoComments[_hashVideo][0].exists){}\n        VideoCommentCount = 0;\n        videoComments[_hashVideo][VideoCommentCount] = Comment(CommentCount, _hashVideo, _comment, msg.sender);\n\n        emit NewComment(CommentCount, _hashVideo, _comment, msg.sender);\n    }\n\n\n  constructor() public {\n\n  }\n}\n*/",
  "sourcePath": "/Users/dhludo/Desktop/eth-youtube/dvideo/src/contracts/DVideo.sol",
  "compiler": {
    "name": "solc",
    "version": "0.5.16+commit.9c3226ce.Emscripten.clang"
  },
  "schemaVersion": "3.2.3",
  "updatedAt": "2021-05-17T22:02:14.508Z",
  "networkType": "ethereum",
  "devdoc": {
    "methods": {}
  },
  "userdoc": {
    "methods": {}
  }
}